:100000000C9462000C94EF020C94C8020C948A00C9
:100010000C948A000C948A000C948A000C948A0038
:100020000C948A000C948A000C948A000C948A0028
:100030000C948A000C948A000C948A000C948A0018
:100040000C947E020C948A000C948A000C948A0012
:100050000C948A000C948A000C948A000C948A00F8
:100060000C948A000C948A000000000023002600F3
:10007000290000000000240027002A0000000000E2
:10008000250028002B0004040404040404040202D4
:100090000202020203030303030301020408102007
:1000A0004080010204081020010204081020000012
:1000B0000008000201000003040700000000000027
:1000C0000000720411241FBECFEFD8E0DEBFCDBF09
:1000D00011E0A0E0B1E0E2E0F9E002C005900D928D
:1000E000AC30B107D9F721E0ACE0B1E001C01D921E
:1000F000A032B207E1F710E0C2E6D0E004C02197D9
:10010000FE010E947904C136D107C9F70E94160387
:100110000C947F040C940000833081F028F481302B
:1001200099F08230A1F008958730A9F08830B9F0B5
:100130008430D1F4809180008F7D03C08091800055
:100140008F7780938000089584B58F7702C084B53F
:100150008F7D84BD08958091B0008F7703C080911A
:10016000B0008F7D8093B00008951F93CF93DF93ED
:10017000282F30E0F901E255FF4F8491F901E6564E
:10018000FF4FD491F901EA57FF4FC491CC23C9F036
:10019000162F81110E948C00EC2FF0E0EE0FFF1F54
:1001A000E458FF4FA591B4918FB7F894111105C091
:1001B0009C91ED2FE095E92302C0EC91ED2BEC939F
:1001C0008FBFDF91CF911F910895CF93DF9390E080
:1001D000FC01E656FF4F2491FC01EA57FF4F849142
:1001E000882361F190E0880F991FFC01EE58FF4FC2
:1001F000C591D491FC01E458FF4FA591B4916111D0
:1002000009C09FB7F8948881209582238883EC9158
:100210002E230BC0623061F49FB7F8943881822F8F
:10022000809583238883EC912E2B2C939FBF06C04F
:100230008FB7F894E8812E2B28838FBFDF91CF9161
:100240000895CF93DF93EC0161E086E00E94E50022
:10025000209711F460E004C0CF3FD10531F461E094
:1002600086E0DF91CF910C94B500E4EBF0E0E491EF
:10027000E330F9F048F4E130B9F0E230A1F584B5AB
:10028000806284BDC8BD34C0E730E9F0E83019F1C0
:10029000E43049F580918000806280938000D093A3
:1002A0008B00C0938A0024C084B5806884BDC7BD1C
:1002B0001FC080918000806880938000D093890067
:1002C000C093880015C08091B00080688093B00012
:1002D000C093B3000DC08091B00080628093B000E5
:1002E000C093B40005C0C038D1050CF0B8CFB2CF70
:1002F000DF91CF9108953FB7F89480910D019091CF
:100300000E01A0910F01B091100126B5A89B05C068
:100310002F3F19F00196A11DB11D3FBFBA2FA92F84
:10032000982F8827820F911DA11DB11DBC01CD0101
:1003300042E0660F771F881F991F4A95D1F70895ED
:100340008F929F92AF92BF92CF92DF92EF92FF92E5
:100350006B017C010E947B014B015C01C114D10443
:10036000E104F104F1F00E947B01DC01CB0188196A
:100370009909AA09BB09883E9340A105B10570F30C
:1003800021E0C21AD108E108F10888EE880E83E066
:10039000981EA11CB11CC114D104E104F10419F789
:1003A000DDCFFF90EF90DF90CF90BF90AF909F9008
:1003B0008F90089508950F931F93CF93DF938C012F
:1003C000C0E0D0E0C017D10781F061E070E080E0CC
:1003D00090E00E94A00180911C01882321F081E01F
:1003E00080931D0102C02196EDCFDF91CF911F9127
:1003F0000F910895CF92DF92EF92FF920F931F9388
:10040000CF93DF9306E011E0C1E0D0E0E12CF12CC6
:10041000F801219131918F013327F901E255FF4F06
:100420008491F901E656FF4FC490F901EA57FF4F56
:10043000D490DD2071F081110E948C00ED2DF0E050
:10044000EE0FFF1FE859FF4FA591B491EC91EC21FD
:10045000E9F42FB7F8948091110190911201A091C5
:100460001301B09114012FBF409115015091160155
:100470006091170170911801841B950BA60BB70BA7
:10048000853F9140A105B10508F07E012196C43059
:10049000D10509F0BDCF2FB7F8948091110190914B
:1004A0001201A0911301B09114012FBF8093150187
:1004B00090931601A0931701B093180180911E012B
:1004C00090911F018E159F0529F410921F01109223
:1004D0001E0104C0F0921F01E0921E0181E0809392
:1004E0001C0110921D0180931B01DF91CF911F9180
:1004F0000F91FF90EF90DF90CF9008951F920F9291
:100500000FB60F9211242F933F938F939F93AF9326
:10051000BF938091110190911201A0911301B091AC
:10052000140130910C0123E0230F2D3720F40196A4
:10053000A11DB11D05C026E8230F0296A11DB11D06
:1005400020930C018093110190931201A093130149
:10055000B093140180910D0190910E01A0910F01B3
:10056000B09110010196A11DB11D80930D019093D2
:100570000E01A0930F01B0931001BF91AF919F9115
:100580008F913F912F910F900FBE0F901F90189554
:100590001F920F920FB60F9211242F933F934F93F8
:1005A0005F936F937F938F939F93AF93BF93EF93DB
:1005B000FF93E0910201F09103010995FF91EF9102
:1005C000BF91AF919F918F917F916F915F914F916B
:1005D0003F912F910F900FBE0F901F9018951F9273
:1005E0000F920FB60F9211242F933F934F935F9367
:1005F0006F937F938F939F93AF93BF93EF93FF93EB
:10060000E0910001F09101010995FF91EF91BF91F7
:10061000AF919F918F917F916F915F914F913F919A
:100620002F910F900FBE0F901F901895789484B55E
:10063000826084BD84B5816084BD85B5826085BDDE
:1006400085B5816085BD80916E00816080936E006C
:10065000109281008091810082608093810080915E
:10066000810081608093810080918000816080930F
:1006700080008091B10084608093B1008091B000CF
:1006800081608093B00080917A00846080937A00CA
:1006900080917A00826080937A0080917A008160F4
:1006A00080937A0080917A00806880937A0010921B
:1006B000C10010921F0110921E0110921C01109295
:1006C0001D0110921B012FB7F89480911101909198
:1006D0001201A0911301B09114012FBF8093150155
:1006E00090931601A0931701B093180161E08BE07D
:1006F0000E94E50061E084E00E94E50061E085E0A1
:100700000E94E50061E086E00E94E50060E088E08C
:100710000E94E50060E089E00E94E50060E08AE078
:100720000E94E500C091190161E08C2F0E94B50084
:1007300088EC90E00E94DB0160E08C2F0E94B50005
:100740008AEF91E090930301809302018091690008
:10075000837F886080936900E99A00E010E08091CF
:100760001E0190911F01181619060CF06EC0823000
:100770009105F1F083309105E1F1019709F060C036
:1007800061E084E00E94B50060E085E00E94B50071
:1007900060E086E00E94B50088EE93E00E94DB01F5
:1007A00080911C018823C1F381E080931D0165C005
:1007B00061E085E00E94B50060E084E00E94B50041
:1007C00060E086E00E94B50061E085E00E94B5002F
:1007D00088EE93E00E94DB0180911C018111E4CF3F
:1007E00060E085E00E94B50088EE93E00E94DB01A6
:1007F000EBCF61E086E00E94B50060E084E00E94FB
:10080000B50060E085E00E94B500CFEFD0E0CE01FA
:100810000E94210180911C018111C6CF8AE390E0E2
:100820000E94DB01259799F7CE010E9421018AE3FE
:1008300090E00E94DB012596CF3FD105A9F7E5CFD7
:1008400010921F0110921E0118C010921F011092E9
:100850001E0160E08BE00E94B50060E084E00E9431
:10086000B50060E085E00E94B50060E086E00E948F
:10087000B50088EE93E00E94DB0180911D01882382
:1008800021F010921D0110921C0180911B01882300
:1008900011F160E08BE00E94B50060E084E00E940E
:1008A000B50060E085E00E94B50060E086E00E944F
:1008B000B500C091190161E08C2F0E94B50064E67B
:1008C00070E080E090E00E94A00160E08C2F0E9428
:1008D000B50010921B010115110509F440CF0E94CB
:1008E00000003DCF8BE090E090931A0180931901B6
:1008F0000895EE0FFF1F0590F491E02D0994F894F0
:02090000FFCF27
:0C090200DA01DA010300080009000A0015
:00000001FF
